:0E0000000C9438000C9400000C9400000C943A
:10000E0000000C9400000C9400000C9400000C9462
:10001E0000000C9400000C9400000C9400000C9452
:10002E0000000C9400000C9400000C9400000C9442
:10003E0000000C9400000C9400000C9488000C94AA
:10004E0000000C9400001027E80364000A00010071
:10005E000010000110000100000002000400660004
:10006E000000F894EE27ECBBF1E0FBBFEBBFE5BF61
:10007E008DE0A2E0BB27ED938A95E9F780E098E04A
:10008E00A0E6ED930197E9F7E8E6F0E0859195910A
:10009E00009761F0A591B59105901590BF01F00103
:1000AE0005900D920197E1F7FB01F0CFEFE5EDBF63
:1000BE00E8E0EEBFC0E6D2E00C94B800AA93E88167
:1000CE00E7B98BE18A95F1F7369A349BFECF349AD5
:1000DE00E4B1F5B105C0AA935D9BFECFE881ECB902
:1000EE0021960895BA93AA93A881B981119711F414
:1000FE00539A05C0E881F981309709F453982296F6
:10010E0008950A921A92FA926A937A938A939A931C
:10011E00AA93BA93EA93FA93EFB7EA93A1E0B0E009
:10012E00E1DFA0E0CBDF662777270E945701DF01D2
:10013E00CB01E8EFF3E563E070E40E9485010E94D5
:10014E001E01AE2FC8DFE991EFBFF991E991B99188
:10015E00A9919991899179916991F9901990099044
:10016E001895E0E0EABBEBBBE7BBE8BBEFEFE4BB07
:10017E00E0E0E5BBE1BBE2BBE3BFE2BFECBFEFBD3E
:10018E00EEBDEDBDECBDE7BDE6BDEBBDEABDE9BD27
:10019E00E8BDE2BDE5BDE4BDE3BDE9BFE5BFE4BF3B
:1001AE00EBB9E0E1EAB9E6E8E0BDE0E0E0BDE3E3AB
:1001BE00E9B9EBE0E8B9E0E0E7B9E3E8E6B9E0E099
:1001CE00E0BFEDB9E6BF789488EC90E00197F1F7C7
:1001DE00FBCFFFCF552342F4503811F4E0FF04C09B
:1001EE003196691F791F6BF050E8572711F45F9312
:1001FE0073C05F3F31F0660F000C57956795752FF2
:10020E0008955F9300200AF073C06CC050E8192E59
:10021E001522880F991F9527550F879550E8072EA1
:10022E000522660F771F7527550F679508956894F9
:10023E0001C0E8945F93F2DF703818F07F3F08F446
:10024E004BC056E1571BAAF4519558300EF4593055
:10025E0030F0EFEFFFEF6FEF7FE777F91AC07727F8
:10026E005523B9F0EE0FFF1F661F771F5A95D1F772
:10027E0010C07727583028F0EF2FF62F672F5850E1
:10028E00F9CF552331F076956795F795E7955A9501
:10029E00D1F700200AF477D05F910895689401C0D9
:1002AE00E894309760407040B1F0002426F0772338
:1002BE0012F4009468D0172E7EE1112032F07A9558
:1002CE00EE0FFF1F661F111CF9CFEF2FF62F612DBA
:1002DE005F938ADF5F910895EE27FF2766277727C2
:1002EE005F910895EFEFFFEF6FE77FEF5F91089556
:1002FE00EFEFFFEF6FE77FE75F9108955F9386DF84
:10030E00703821F411200AF4EDCFF2CF903809F4B1
:10031E00E3CF01240894970B1BF4D4F30020F3CF02
:10032E00792F1F932F933F934F9311241127222739
:10033E0033274427552790E2AE17BF07860741079C
:10034E0030F0AE1BBF0B860B410B089401C0889496
:10035E00551F221F331F111CAA1FBB1F881F441FAE
:10036E009A9551F7F901612D4F913F912F911F9160
:10037E00662332F0550FEE1FFF1F661F7A9543F26C
:10038E0029DF5F910895F09560957095E195FF4F87
:10039E006F4F7F4F08956F2F660F660B762F089560
:00000001FF
