:0A0000000C943D000C9400000C94D9
:10000A0000000C9400000C9400000C9400000C9466
:10001A0000000C9400000C9400000C9400000C9456
:10002A0000000C9400000C9400000C9400000C9446
:10003A0000000C9400000C9400000C9400000C9436
:10004A0000000C9400000C9400001027E8036400E0
:10005A000A000100001000011000010054203D2098
:10006A0025642043000080C002006A02700000007C
:10007A00F894EE27ECBBF1E0FBBFEBBFE5BF8DE0E8
:10008A00A2E0BB27ED938A95E9F780E098E0A0E625
:10009A00ED930197E9F7E2E7F0E0859195910097F2
:1000AA0061F0A591B59105901590BF01F0010590F9
:1000BA000D920197E1F7FB01F0CFEFE5EDBFE8E024
:1000CA00EEBFC0E6D2E00C94AA00BA93AA93A88124
:1000DA00B981119711F4539A05C0E881F9813097D3
:1000EA0009F4539896C01A930A93EBB11E2FE0783D
:1000FA00E1F30CB1E12FEC7111F4E02F01C0F5CF5F
:10010A00099119910895AA931A930A93EA81F0E042
:10011A00F0708F01E0E6F2E0FA93EA93E6E6F0E0A7
:10012A00FA93EA93F8010E947D030E948A0384E00D
:10013A000E94E4022896E0E0EA93A0E05FD0A0E6FD
:10014A00B2E08AD01981088196C0E0E0EABBEBBB35
:10015A00E7BBE8BBEFEFE4BBE0E0E5BBE1BBE2BB3A
:10016A00E3BFE2BFECBFEFBDEEBDEDBDECBDE7BD49
:10017A00E6BDEBBDEABDE9BDE8BDE2BDE5BDE4BD56
:10018A00E3BDE9BFE5BFE4BFEBB9E0E1EAB9E6E800
:10019A00E0BDE0E0E0BDE3E3E9B9E0E8E8B9E0E0CA
:1001AA00E0BFE6B9EDB9E6BFA8E067D0A0E0B0E0ED
:1001BA008CDF99DFAE2FA7DFFCCFFFCFAA93E5B381
:1001CA00EF70AE2FE881E07FEA2BE5BB8DE08A95E0
:1001DA00F1F7AA9A8DE08A95F1F7AA988DE08A95A7
:1001EA00F1F777C0AA93A881E9DFE881E295E8836D
:1001FA00A881E4DF85E88A95F1F76BC0AA93E881C4
:10020A00F0E0E659FD4FE081A981AE0FEBDF79807E
:10021A00688022960895A2E00E943103ACE0E2DFF2
:10022A00A1E00E943103E0E06E2E7E2E0895AA938B
:10023A00A881AA3011F0791448F0E0E0EA936394B7
:10024A00A62DDCDFA881AA3009F443C07394A89ACA
:10025A00A881C8DFA8983DC0BA93AA931A93A98126
:10026A00BA81ED91A983BA831E2FE03019F0A12F2C
:10027A00DEDFF5CF188123960895AA93E4B3E06FE1
:10028A00E4BBA29AA09AA19AAA98A898A998988039
:10029A00E881E058E0936C02E881E054E0936D0253
:1002AA00A4E1B0E00E946B030E9437030E94370367
:1002BA000E943703A0E282DF88EC90E00197F1F711
:1002CA00A8E290DFA4E08EDFA5E88CDFA6E08ADF53
:1002DA00A2DF21960895BA93AA931A930A93AA8140
:1002EA00BB8112960E948203309759F1AA81BB8181
:1002FA0014960E9482038F01309761F00230E0E089
:10030A001E0798F0F80131978F01AA81BB811496D4
:10031A00ED93FC93AA81BB811296ED91FD913196E2
:10032A00FE93EE933197AC81A083AA81BB810E9490
:10033A008203FF232AF0ED91FD913196FE93EE930D
:10034A0006C0AA81BB81EFEFFFEFED93FC93198101
:10035A00088125960895BA93AA9326970E948F0337
:10036A0010E0AC85BD85E0E0F0E0ED93FC93EA890E
:10037A00FB893196EA8BFB8B3197E4912E2FE03083
:10038A0009F415C1E12FE03039F4253211F411E0F6
:10039A0002C00E943F030AC1E130A9F4253219F4D0
:1003AA000E943F0302C112E040E000E02D3211F446
:1003BA0001E0FCC02B3211F44BE2F8C0203211F4F8
:1003CA0040E2F4C002C0E23039F450E013E02033D6
:1003DA0011F40068EBC003C0E33009F0E7C0203332
:1003EA0010F02A3308F007C0AAE05A9F502DE22FD6
:1003FA00E0535E0FDBC0E22FE33649F40E94460366
:10040A00E889F989A481AA930E944C03CEC0E337F4
:10041A0041F40E9446030E9452030E9418031E2FB1
:10042A000AC0E03761F40E9446030E9452030E9408
:10043A0024031E2F086002600F7730E034C0E436D0
:10044A0011F0E93611F4046002C0E53731F4E4E54D
:10045A00F0E0EE83FF8315E00CC0E83511F4086084
:10046A0003C0E83709F0A1C0EEE5F0E0EE83FF83B0
:10047A0014E002FF14C00E9446030E945C03AB858D
:10048A00AA233AF4EA85FB850E947903EA87FB8767
:10049A004DE2403011F01F5F01C00B7F04C00E9483
:1004AA0046030E945C0300FD11C0151778F407FF8C
:1004BA0008C002FF04C00B7F242F115001C020E3A3
:1004CA0001C020E20E943F035150EFCF312F01FFBC
:1004DA0017C03030A1F003FF06C0EE81FF812591DD
:1004EA00EE83FF8305C0AE81BF812D91AE83BF83AA
:1004FA000E943F03503009F051503150EACF4BC0AF
:10050A0020E3EE81FF810E948603E887F987EE8166
:10051A00FF813296EE83FF83E885F985AA85BB853C
:10052A00AE17BF0750F02F5FA885B985EA85FB850E
:10053A00EA1BFB0BEA87FB87EFCF2A3328F003FF7E
:10054A0002C0295F01C0295D04FD1AC0213320F4CD
:10055A00A885B985119709F409C0531710F000FF4F
:10056A0001C013C020E207FF0BC020E3006102FFB5
:10057A0007C00B7F4A930E944C03503009F0515038
:10058A000E943F03503009F051503150A885B98577
:10059A00129708F0B5CF00FF08C0503031F0515023
:1005AA00E0E2EA930E944C03F8CF10E0E0CEAC857B
:1005BA00BD850E9482030E94960364960895FF9265
:1005CA00F82E26970E9491030E946403309719F42B
:1005DA00EFEFFFEF23C0DE0116960E9475038D012F
:1005EA000E946403EE83FF83E0E0E887E987DE0187
:1005FA001A960E9475030E948203FA93EA931A9349
:10060A000A93E0E7F1E0FA93EA93DE011A96A3DE91
:10061A009F01AE81BF81E0E0EC93F9010E9498034B
:10062A002A96FF900895BA93AA93A991B991EE27B1
:10063A00FF276D91662311F03196FBCF0895BA9387
:10064A00AA93AA27BB27E991F9910590002011F0F6
:10065A001196FBCFFD0108950E94F700A3E0B0E0D8
:10066A000C946B03A0E30E94E30088EC90E00197EE
:10067A00F1F708952A93AD85BE85EF85F889099526
:10068A000895E889F9893497E88BF98B0895AD853F
:10069A00BE85EF85F88909950895A889B9891496C0
:1006AA000E948203EE83FF83AE81BF810895A889E9
:1006BA00B98914960E948203EA87FB870895DE01AE
:1006CA001C960E9475030E9482030895109639F0C1
:1006DA0080ED97E00197F1F7A8951197C9F708956A
:1006EA000024AF0DB01D0895F195E195F0400895ED
:1006FA006F2F660F660B762F0895ED91FC91119777
:10070A0008950590F491E02D08957A936A93FA93E7
:10071A00EA9308955A934A933A932A931A930A9317
:10072A0008955D814C813B812A8119810881089550
:00000001FF
